S00B000044494F2E737265633D
S113000012C024C023C022C021C020C01FC01EC0F3
S11300101DC01CC01BC08CC019C018C017C016C09E
S113002015C014C013C011241FBECFE5D4E0DEBF39
S1130030CDBF10E0A0E6B0E0ECE7F3E002C005902D
S11300400D92A836B107D9F733D096C1D9CFAB01F9
S1130050BC01411551056105710561F080E090E036
S1130060DC0100000196A11DB11D481759076A075C
S11300707B07B9F70895689413F896958795779553
S113008067951694D1F756D1CA01B9016150710927
S113009081099109A0D005D172D010BC69B988E951
S11300A08AB98EE880BD08955D9BFECF8CB9089512
S11300B020E036E940E050E060E072E18AE790E059
S11300C0DADF87E3F1DF88E3EFDF89E3EDDF8AE35B
S11300D0EBDF8BE3E9DF8CE3E7DFA0E6B0E0ED9153
S11300E0FC91119716968C911697282F2095908144
S11300F09223892B80837894ED01EA81FB812E8100
S1130100822F809590818923822B808360EA76E810
S113011081E090E09CDFEA81FB818E818095908173
S11301208923808360EA76E881E090E090DFE5CF80
S11301301F920F920FB60F9211242F933F934F9358
S11301405F936F937F938F939F93AF93BF93EF933B
S1130150FF938CB1853011F486E0A6DFFF91EF9117
S1130160BF91AF919F918F917F916F915F914F91CB
S11301703F912F910F900FBE0F901F90189570D044
S113018088F09F5790F0B92F9927B751A0F0D1F07C
S1130190660F771F881F991F1AF0BA95C9F712C006
S11301A0B13081F077D0B1E0089574C0672F782F13
S11301B08827B85F39F0B93FCCF386957795679572
S11301C0B395D9F73EF490958095709561957F4FDE
S11301D08F4F9F4F0895E89409C097FB3EF4909584
S11301E08095709561957F4F8F4F9F4F9923A9F00C
S11301F0F92F96E9BB279395F6958795779567959B
S1130200B795F111F8CFFAF4BB0F11F460FF1BC0DE
S11302106F5F7F4F8F4F9F4F16C0882311F096E971
S113022011C0772321F09EE8872F762F05C066231F
S113023071F096E8862F70E060E02AF09A95660FD8
S1130240771F881FDAF7880F9695879597F9089591
S113025057FD9058440F551F59F05F3F71F0479573
S1130260880F97FB991F61F09F3F79F08795089558
S1130270121613061406551FF2CF4695F1DF08C077
S1130280161617061806991FF1CF86957105610594
S113029008940895E894BB2766277727CB0197F93C
S11302A00895DEDFE0F09E37D8F09639B8F49E3832
S11302B048F4672F782F8827985FF9CF869577952C
S11302C0679593959539D0F3B62FB1706B0F711D67
S11302D0811D20F4879577956795939502C01CC07E
S11302E0DACF882371F4772321F09850872B762F67
S11302F007C0662311F499270DC09051862B70E036
S113030060E02AF09A95660F771F881FDAF7880F46
S11303109695879597F908959F3F31F0915020F471
S1130320879577956795B795880F911D96958795CD
S113033097F90895A1E21A2EAA1BBB1BFD010DC05B
S1130340AA1FBB1FEE1FFF1FA217B307E407F50781
S113035020F0A21BB30BE40BF50B661F771F881F5D
S1130360991F1A9469F760957095809590959B01F3
S10F0370AC01BD01CF010895F894FFCF4B
S10B037C3700380036000200CE
S9030000FC
